:100000000C9434000C9451000C9451000C94510049
:100010000C9451000C9451000C9451000C9451001C
:100020000C9451000C9451000C9451000C9451000C
:100030000C9451000C9451000C9451000C945100FC
:100040000C9451000C9451000C9451000C945100EC
:100050000C9451000C9451000C9451000C945100DC
:100060000C9451000C94510011241FBECFEFD8E026
:10007000DEBFCDBF12E0A0E0B1E0E0E4FCE002C0F2
:1000800005900D92A237B107D9F723E0A2E7B2E0BD
:1000900001C01D92AF37B207E1F70E9408020C942D
:1000A0001E060C94000088E48093B8000895ECEBE1
:1000B000F0E0108294EA908390819923ECF790917C
:1000C000B900987F9830A1F48093BB0084E88093B6
:1000D000BC00ECEBF0E080818823ECF79091B90054
:1000E000987F983139F081E0903429F480E00895C8
:1000F00081E0089580E008958093BB0084E88093B8
:10010000BC00ECEBF0E080818823ECF79091B90023
:10011000987F81E0983209F480E0089584EC809320
:10012000BC00ECEBF0E080818823ECF78091BB0011
:10013000089584E88093BC00ECEBF0E08081882394
:10014000ECF78091BB000895CF92DF92FF920F935E
:100150001F93CF93DF93C62F6A0189010E94570036
:10016000F82E811115C08C2F0E947C0001151105FD
:1001700059F0E6010C0D1D1D89910E947C00811132
:100180000AC0C017D107C1F784E98093BC0005C03D
:10019000FF24F39402C0FF24F3948F2DDF91CF91BD
:1001A0001F910F91FF90DF90CF900895AF92BF9273
:1001B000DF92EF92FF920F931F93CF93DF93182F4D
:1001C000062F5A01E9010E945700811122C0802F99
:1001D0000E947C00812F81600E945700D82E8111DF
:1001E0001BC08E010150110951F0E5017501E00EAF
:1001F000F11E0E948E008993EC16FD06D1F7E501F1
:10020000C00FD11F0E949900888384E98093BC00AD
:1002100005C0DD24D39402C0DD24D3948D2DDF915D
:10022000CF911F910F91FF90EF90DF90BF90AF9013
:100230000895E0ECF0E0908195FFFDCF8093C6003B
:1002400080E090E0089580910F018093C500809137
:100250000E018093C40088E98093C10086E08093FA
:10026000C2000895EF92FF920F931F93CF93DF93F5
:100270007C018B01EA0121E030E044E753E066E9CC
:1002800082E70E94D60021E030E043E752E067E9D0
:1002900082E70E94D60021E030E045E753E068E9BC
:1002A00082E70E94D60021E030E042E752E069E9AF
:1002B00082E70E94D60021E030E046E753E06AE999
:1002C00082E70E94D60021E030E047E753E06BE987
:1002D00082E70E94D6008091730290E0982F8827D1
:1002E00020917403822BF70191838083809177039F
:1002F00090E0982F882720917603822BF801918334
:1003000080838091720290E0982F88272091750356
:10031000822B99838883DF91CF911F910F91FF905A
:10032000EF90089521E030E048E753E062E982E78A
:100330000E94D600809178038B3A09F0FFCF21E02C
:1003400030E048E753E060E882E70E94A4008BEDCC
:100350008093780321E030E048E753E061E882E7EA
:100360000E94A40086EF8093780321E030E048E704
:1003700053E063E882E70E94A40087E88093780353
:1003800021E030E048E753E06EE882E70E94A400F5
:100390001092780321E030E048E753E06DE982E70E
:1003A0000E94A4001092780321E030E048E753E077
:1003B0006EE982E70E94A40080E68093780321E042
:1003C00030E048E753E06DE882E70E94A40081E155
:1003D0008093780321E030E048E753E06CE882E75F
:1003E0000E94A40081E08093780321E030E048E798
:1003F00053E060E982E70E94A4001092780321E0B4
:1004000030E048E753E06FE982E70E94A4000895D6
:10041000CF93DF9300D000D000D0CDB7DEB71A82E3
:1004200019821C821B821E821D820E9453000E9420
:10043000230180E091E090937C0380937B030E94F2
:1004400092012FEF87EA91E6215080409040E1F73A
:1004500000C0000080E191E00E9426032FEF8BE7AF
:1004600092E9215080409040E1F700C0000084E113
:1004700091E00E9426032FEF8BE792E92150804004
:100480009040E1F700C0000081E291E00E94260365
:100490000F2EFAE8CF2EF1E0DF2EF02D0F2EF7ED24
:1004A000EF2EF1E0FF2EF02D04E212E02FEF8DE3AE
:1004B00099E4215080409040E1F700C0000082E4C0
:1004C00091E00E9426032FEF8DE399E421508040B4
:1004D0009040E1F700C000008FE491E00E94260305
:1004E0002FEF8DE399E4215080409040E1F700C068
:1004F0000000AE014B5F5F4FBE016D5F7F4FCE01CD
:1005000001960E9432018AE791E00E9426038A81C7
:100510008F9389818F93DF92CF920E9410032FEFE8
:100520008DE399E4215080409040E1F700C0000045
:1005300082E491E00E9426032FEF8DE399E421509D
:1005400080409040E1F700C000008FE491E00E94FD
:1005500026032FEF8DE399E4215080409040E1F78E
:1005600000C00000AE014B5F5F4FBE016D5F7F4F6B
:10057000CE0101960E9432018AE791E00E94260393
:100580008C818F938B818F93FF92EF920E94100347
:100590002FEF8DE399E4215080409040E1F700C0B7
:1005A000000082E491E00E9426032FEF8DE399E49E
:1005B000215080409040E1F700C000008FE491E0BE
:1005C0000E9426032FEF8DE399E421508040904054
:1005D000E1F700C00000AE014B5F5F4FBE016D5FF1
:1005E0007F4FCE0101960E9432018AE791E00E947E
:1005F00026038E818F938D818F931F930F930E947B
:1006000010032FEF8DE399E4215080409040E1F7F3
:1006100000C000000FB6F894DEBF0FBECDBF46CFBE
:10062000A0E0B0E0E6E1F3E00C94F705AE014B5F2B
:100630005F4FFA0161917191AF0180917B039091BD
:100640007C030E945603E2E00C9413060F931F9361
:10065000CF93DF93E0917B03F0917C03238121FF13
:100660001BC08C01D0E0C0E0F80181918F01609146
:100670007B0370917C03DB011896ED91FC91199737
:10068000882331F00995892B79F3DFEFCFEFECCF99
:100690008AE00995892B19F08FEF9FEF02C08D2F0B
:1006A0009C2FDF91CF911F910F910895ABE0B0E0A7
:1006B000ECE5F3E00C94E7056C017B018A01FC0199
:1006C00017821682838181FFCCC1CE0101963C0145
:1006D000F6019381F70193FD859193FF81917F014D
:1006E000882309F4BAC1853239F493FD859193FFCB
:1006F00081917F01853229F4B60190E00E944D0579
:10070000E7CF912C212C312CFFE1F315D8F08B325F
:1007100079F038F4803279F08332A1F4232D20610E
:100720001DC08D3261F0803369F4232D216016C025
:10073000832D8260382EE32DE4603E2E2AC0F32DF7
:10074000F8601DC037FC2DC020ED280F2A3040F086
:100750008E32B9F436FC81C1232D2064322E19C0AB
:1007600036FE06C08AE0989E200D1124922E11C0FC
:10077000EAE02E9E200D1124222EF32DF0623F2E52
:1007800008C08C3621F4832D8068382E02C088364C
:1007900041F4F70193FD859193FF81917F018111D0
:1007A000B3CF982F9F7D9554933028F40C5F1F4F43
:1007B0009FE399830DC0833631F0833771F0833521
:1007C00009F059C021C0F801808189830E5F1F4F55
:1007D00088248394912C530113C02801F2E04F0E1A
:1007E000511CF801A080B18036FE03C0692D70E075
:1007F00002C06FEF7FEFC5010E9442054C018201EC
:10080000F32DFF773F2E16C0280122E0420E511C27
:10081000F801A080B18036FE03C0692D70E002C0EF
:100820006FEF7FEFC5010E9437054C01F32DF06893
:100830003F2E820133FC1BC0822D90E08816990662
:10084000B0F4B60180E290E00E944D052A94F4CF06
:10085000F50137FC859137FE81915F01B60190E08B
:100860000E944D0521102A9421E0821A91088114DA
:10087000910471F7E8C0843611F0893641F5F8012A
:1008800037FE07C060817181828193810C5F1F4FA9
:1008900008C060817181072E000C880B990B0E5FD8
:1008A0001F4FF32DFF763F2E97FF09C0909580953F
:1008B000709561957F4F8F4F9F4FF0683F2E2AE0D4
:1008C00030E0A3010E948905882E861845C085372F
:1008D00031F4232D2F7EB22E2AE030E025C0932D57
:1008E000997FB92E8F36C1F018F4883579F0B5C0EC
:1008F000803719F0883721F0B0C0E92FE061BE2EB3
:10090000B4FE0DC0FB2DF460BF2E09C034FE0AC03A
:10091000292F2660B22E06C028E030E005C020E175
:1009200030E002C020E132E0F801B7FE07C060818C
:100930007181828193810C5F1F4F06C0608171813C
:1009400080E090E00E5F1F4FA3010E948905882E72
:100950008618FB2DFF773F2E36FE0DC0232D2E7FF0
:10096000A22E891458F434FE0BC032FC09C0832D2A
:100970008E7EA82E05C0B82CA32C03C0B82C01C0B5
:10098000B92CA4FE0FC0FE01E80DF11D808180335B
:1009900021F49A2D997EA92E09C0A2FE06C0B39417
:1009A000B39404C08A2D867809F0B394A3FC11C0D7
:1009B000A0FE06C0B21488F4280C922C9B180EC01E
:1009C000B21460F4B60180E290E00E944D05B39449
:1009D000F7CFB21418F42B1802C0982C212CA4FEC7
:1009E00010C0B60180E390E00E944D05A2FE17C042
:1009F000A1FC03C088E790E002C088E590E0B60162
:100A00000CC08A2D867859F0A1FE02C08BE201C08D
:100A100080E2A7FC8DE2B60190E00E944D058914AA
:100A200038F4B60180E390E00E944D059A94F7CF28
:100A30008A94F301E80DF11D8081B60190E00E94D7
:100A40004D058110F5CF222009F442CEB60180E297
:100A500090E00E944D052A94F6CFF6018681978199
:100A600002C08FEF9FEF2B96E2E10C940306FC018E
:100A70000590615070400110D8F7809590958E0FC9
:100A80009F1F0895FC016150704001900110D8F73C
:100A9000809590958E0F9F1F08950F931F93CF936E
:100AA000DF93FB01238121FD03C08FEF9FEF2CC05B
:100AB00022FF16C046815781248135814217530792
:100AC00044F4A081B1819D012F5F3F4F318320838A
:100AD0008C93268137812F5F3F4F3783268314C045
:100AE0008B01EC01FB010084F185E02D0995892B38
:100AF000E1F6D80116968D919C911797019617965D
:100B00009C938E931697CE01DF91CF911F910F91F9
:100B10000895FA01AA27283051F1203181F1E89493
:100B20006F936E7F6E5F7F4F8F4F9F4FAF4FB1E0E0
:100B30003ED0B4E03CD0670F781F891F9A1FA11DDB
:100B4000680F791F8A1F911DA11D6A0F711D811DDC
:100B5000911DA11D20D009F468943F912AE0269FA1
:100B600011243019305D3193DEF6CF010895462F00
:100B70004770405D4193B3E00FD0C9F7F6CF462FE1
:100B80004F70405D4A3318F0495D31FD405241934A
:100B900002D0A9F7EACFB4E0A69597958795779507
:100BA0006795BA95C9F700976105710508959B018E
:100BB000AC010A2E06945795479537952795BA9517
:100BC000C9F7620F731F841F951FA01D08952F92F0
:100BD0003F924F925F926F927F928F929F92AF92CD
:100BE000BF92CF92DF92EF92FF920F931F93CF931A
:100BF000DF93CDB7DEB7CA1BDB0B0FB6F894DEBFB1
:100C00000FBECDBF09942A88398848885F846E84D6
:100C10007D848C849B84AA84B984C884DF80EE8020
:100C2000FD800C811B81AA81B981CE0FD11D0FB629
:100C3000F894DEBF0FBECDBFED010895F894FFCF4D
:100C40000000000200000000190100000000670021
:100C500041540D0041542B43574D4F44453D310DF8
:100C60000041542B43574A41503D224D4F455F5759
:100C7000696669222C226D6F6F313233343536222A
:100C80000D0041542B4349504D55583D300D004106
:100C9000542B43495053544152543D225443502203
:100CA0002C226170692E7468696E67737065616B60
:100CB0002E636F6D222C38300D0041542B43495068
:100CC00053454E443D3130300D0047455420687443
:100CD0007470733A2F2F6170692E7468696E677330
:100CE0007065616B2E636F6D2F7570646174653F05
:100CF0006170695F6B65793D5642495A5139544A72
:100D00004C3036564B535238266669656C64313D1B
:100D1000253035750D0A004745542068747470738A
:100D20003A2F2F6170692E7468696E677370656100
:100D30006B2E636F6D2F7570646174653F617069B0
:100D40005F6B65793D5642495A5139544A4C3036A9
:100D5000564B535238266669656C64323D253035F2
:100D6000750D0A004745542068747470733A2F2F2C
:100D70006170692E7468696E67737065616B2E634C
:100D80006F6D2F7570646174653F6170695F6B652D
:100D9000793D5642495A5139544A4C3036564B5394
:100DA0005238266669656C64333D253035750D0A09
:020DB000000041
:00000001FF
